:100000000C9453000C9408020C9408020C940802FF
:100010000C9408020C9408020C9408020C94080238
:100020000C9408020C9408020C9408020C94080228
:100030000C9408020C9408020C9408020C94080218
:100040000C9408020C9408020C9408020C94080208
:100050000C9408020C9408020C9408020C940802F8
:100060000C9408020C9408020C9408020C940802E8
:100070000C9408020C9408020C9408020C940802D8
:100080000C9408020C9408020C9408020C940802C8
:100090000C9408020C94DB000C9408020C940802E7
:1000A00028002804800011241FBECFEFCDBFDFE35E
:1000B000DEBFE0EAF0E040E017C0B591A5913591D0
:1000C0002591059107FD0CC095918591EF01F92FC0
:1000D000E82F05900D92A217B307D9F7FE0104C0CF
:1000E0001D92A217B307E1F7E53AF40731F70E9432
:0A00F0007D000C947B00F894FFCF14
:1000FA00C0E0D4E080ED8883A0E2B4E081E08C9394
:10010A00E0E4F4E093E190838093600488E08D8BCF
:10011A0050968C93828B80E184830E94E0010E9436
:10012A00CB010E9429018091480482FDFCCF8CE515
:10013A000E94F4018FEF0E94F401C82ED12CE12C09
:10014A00F12CFE2CED2CDC2CCC248FEF0E94F40138
:10015A00C82AFE2CED2CDC2CCC248FEF0E94F40153
:10016A00C82A8091480482FDFCCF8DE50E94F401E3
:10017A008FEF0E94F401882E912CA12CB12CBA2C5D
:10018A00A92C982C88248FEF0E94F401882ABA2C73
:10019A00A92C982C88248FEF0E94F401A5019401C0
:0C01AA00282BC701B6010E94A701BDCFA1
:1001B6001F920F920FB60F9211242F933F934F93D6
:1001C6005F936F937F938F939F93AF93BF93EF93B9
:1001D600FF93209160082A3099F46091002870916D
:1001E600012880910228909103280E946D011092A7
:1001F600002810920128109202281092032815C098
:100206008091002890910128A0910228B09103289E
:10021600BA2FA92F982F8827822B80930028909396
:100226000128A0930228B0930328FF91EF91BF9174
:10023600AF919F918F917F916F915F914F913F9178
:0C0246002F910F900FBE0F901F90189585
:10025200E0E4F4E084818F7E8483A0ECB8E087EC54
:1002620011968C93119783E28C938FE493EC019710
:10027200F1F700C000008481806184838FEF0E94C7
:10028200F40184E20E94F40181E40E94F40184E317
:100292000E94F40180E80E94F40184E10E94F401CA
:1002A20080E20E94F4018FEF0E94F40185E20E9435
:1002B200F40181E40E94F40185E30E94F40180E8E4
:1002C2000E94F40185E10E94F4018CE30E94F40192
:0802D2008FEF0E94F401089572
:1002DA000F931F93633771058105910529F4E0E4B3
:1002EA00F4E024812E7F248362377105810591050C
:1002FA0019F40E94290123C08C01222733270C36C6
:10030A0011052105310551F4E0E4F4E0248123606C
:10031A0024836093380A7093390A11C0053711058E
:10032A002105310561F4E0E4F4E0248121602483AD
:10033A0024812D7F24836093380A7093390A1F9190
:04034A000F91089572
:10034E00FF920F931F93CF93DF93062FF72EC22F9B
:10035E00D32F142F0E9401028F2D0E940102802F95
:10036E000E940102812F0E9401028D2F0E94010224
:10037E008C2F0E9401028AE00E940102DF91CF9130
:08038E001F910F91FF900895EB
:1003960083E08093E405E0E0FAE083E181838185F0
:1003A6008E7F818780E395E786AB97AB88EB9BE0F2
:0A03B60080AF91AF8BE080830895C3
:1003C000F89490E088ED84BF90936100E0E6F8E057
:1003D00086EB92E08087918780E8858380EC868336
:0803E0008BE0878378940895F7
:1003E8009091C30895FFFCCF8093C4088091C308FF
:0A03F8008823E4F78091C4080895FB
:0E0402009091640895FFFCCF809362080895E6
:040410000C94000048
:00000001FF
